:0400000051EF00F0CC
:10000800FACF12F0FBCF13F0E9CF14F0EACF15F0D6
:10001800E1CF16F0E2CF17F0D9CF18F0DACF19F008
:10002800F3CF1AF0F4CF1BF0F6CF1CF0F7CF1DF08A
:10003800F8CF1EF0F5CF1FF0F2BAF2A402D0312AA1
:10004800F2941FC0F5FF1EC0F8FF1DC0F7FF1CC0CB
:10005800F6FF1BC0F4FF1AC0F3FF19C0DAFF18C07F
:10006800D9FF17C0E2FF16C0E1FF15C0EAFF14C0B0
:10007800E9FF13C0FBFF12C0FAFF1100FACF20F00E
:10008800FBCF21F0E9CF22F053ED00F003C0E0FFF1
:1000980002C0E8FF01C0D8FF1000EFEF00F0060033
:1000A800EACF23F0E1CF24F0E2CF25F0D9CF26F034
:1000B800DACF27F0F3CF28F0F4CF29F0F6CF2AF0E3
:1000C800F7CF2BF0F8CF2CF0F5CF2DF02DC0F5FFA2
:1000D8002CC0F8FF2BC0F7FF2AC0F6FF29C0F4FF99
:1000E80028C0F3FF27C0DAFF26C0D9FF25C0E2FFEA
:1000F80024C0E1FF23C0EAFF22C0E9FF21C0FBFFC3
:1001080020C0FAFF1100306E3F0EC716000EC66EF3
:100118003050C6122F50C71205D0C78C13D0C78CC9
:10012800C68810D02E50000AD8B4F7D7020AD8B41F
:10013800F6D7010AD8B4F4D705D0928A93820AD0A8
:10014800939208D03050040AD8B4F7D7010AD8B42B
:10015800F5D7F6D79380949EC68A1200959296900A
:1001680084809692880ED56EF28AF28EC69A000E18
:100178002E6E000E2F6E020E87EC00F0B70EDDEC2F
:1001880000F0600EE7EC00F0B70EDDEC00F031B0E7
:1001980002D08D9001D08D80FAD72F6EC9CF2EF066
:1001A8009E96C69E2FC0C9FFC6BE02D09EA6FED789
:1001B8001200306E848084923050D1EC00F084823A
:1001C8008492849012002E6E210EE82EFED700F045
:1001D8002E2EFAD71200316A000EF86E0001B2EF27
:0201E80000F025
:020000040020DA
:08000000FFFFFFFFFFFFFFFF00
:020000040030CA
:0E000000000C0100FF8180FF0FC00FE00F40D9
:00000001FF
